{
  "transactions": [
    {
      "hash": "0xd9c041a2fe837ac9fb1c45a96f77cf8f793a0a0f377e78297aa1d89486005f63",
      "transactionType": "CALL",
      "contractName": null,
      "contractAddress": "0x99f2b89fb3c363fbafd8d826e5aa77b28bab70a0",
      "function": "create((address,address,uint48,address,(address,address)[],(address,address,address)[]))",
      "arguments": [
        "(0xf0b850930ede8807e7F472b610b017c187E0e493, 0x93C58Ce7238ba13aA6E3C74a4d17D479fBd99549, 0, 0xf0b850930ede8807e7F472b610b017c187E0e493, [], [])"
      ],
      "transaction": {
        "from": "0xa7eccdb9be08178f896c26b7bbd8c3d4e844d9ba",
        "to": "0x99f2b89fb3c363fbafd8d826e5aa77b28bab70a0",
        "gas": "0x48d3c",
        "value": "0x0",
        "input": "0x3c4a80c80000000000000000000000000000000000000000000000000000000000000020000000000000000000000000f0b850930ede8807e7f472b610b017c187e0e49300000000000000000000000093c58ce7238ba13aa6e3c74a4d17d479fbd995490000000000000000000000000000000000000000000000000000000000000000000000000000000000000000f0b850930ede8807e7f472b610b017c187e0e49300000000000000000000000000000000000000000000000000000000000000c000000000000000000000000000000000000000000000000000000000000000e000000000000000000000000000000000000000000000000000000000000000000000000000000000000000000000000000000000000000000000000000000000",
        "nonce": "0x1468",
        "chainId": "0x1"
      },
      "additionalContracts": [
        {
          "transactionType": "CREATE2",
          "address": "0x812c5d2d9522d67d8f6939a2b9fd2388f44c1ff4",
          "initCode": "0x3d602d80600a3d3981f3363d3d373d3d3d363d7342dd40dc2130c658ab32d9989ff8abe6c36463c05af43d82803e903d91602b57fd5bf3"
        }
      ],
      "isFixedGasLimit": false
    }
  ],
  "receipts": [],
  "libraries": [],
  "pending": [],
  "returns": {},
  "timestamp": 1744311108,
  "chain": 1,
  "commit": "3e55960"
}