{
  "transactions": [
    {
      "hash": "0x713a5778e3f5e684445f49c4d5995f054ed553d63ea548ae005a582e6a720ab6",
      "transactionType": "CALL",
      "contractName": null,
      "contractAddress": "0x99f2b89fb3c363fbafd8d826e5aa77b28bab70a0",
      "function": "create((address,address,uint48,address,(address,address)[],(address,address,address)[]))",
      "arguments": [
        "(0xf0b850930ede8807e7F472b610b017c187E0e493, 0xC10c27afcb915439C27cAe54F5F46Da48cd71190, 0, 0xf0b850930ede8807e7F472b610b017c187E0e493, [], [])"
      ],
      "transaction": {
        "from": "0xa7eccdb9be08178f896c26b7bbd8c3d4e844d9ba",
        "to": "0x99f2b89fb3c363fbafd8d826e5aa77b28bab70a0",
        "gas": "0x48d3c",
        "value": "0x0",
        "input": "0x3c4a80c80000000000000000000000000000000000000000000000000000000000000020000000000000000000000000f0b850930ede8807e7f472b610b017c187e0e493000000000000000000000000c10c27afcb915439c27cae54f5f46da48cd711900000000000000000000000000000000000000000000000000000000000000000000000000000000000000000f0b850930ede8807e7f472b610b017c187e0e49300000000000000000000000000000000000000000000000000000000000000c000000000000000000000000000000000000000000000000000000000000000e000000000000000000000000000000000000000000000000000000000000000000000000000000000000000000000000000000000000000000000000000000000",
        "nonce": "0x1487",
        "chainId": "0x1"
      },
      "additionalContracts": [
        {
          "transactionType": "CREATE2",
          "address": "0x25685269f0e5bcb01717ad915d2295e0345c1581",
          "initCode": "0x3d602d80600a3d3981f3363d3d373d3d3d363d7342dd40dc2130c658ab32d9989ff8abe6c36463c05af43d82803e903d91602b57fd5bf3"
        }
      ],
      "isFixedGasLimit": false
    }
  ],
  "receipts": [
    {
      "status": "0x1",
      "cumulativeGasUsed": "0x13c0433",
      "logs": [
        {
          "address": "0x25685269f0e5bcb01717ad915d2295e0345c1581",
          "topics": [
            "0x8be0079c531659141344cd1fd0a4f28419497f9722a3daafe3b4186f6b6457e0",
            "0x0000000000000000000000000000000000000000000000000000000000000000",
            "0x000000000000000000000000f0b850930ede8807e7f472b610b017c187e0e493"
          ],
          "data": "0x",
          "blockHash": "0x48c2fe398eb4df28b6e60f0adc555f7ae5574c3ea138a8aa6a9a3a4fb9c6dfb6",
          "blockNumber": "0x1537642",
          "blockTimestamp": "0x67f9470b",
          "transactionHash": "0x713a5778e3f5e684445f49c4d5995f054ed553d63ea548ae005a582e6a720ab6",
          "transactionIndex": "0xdb",
          "logIndex": "0x1b3",
          "removed": false
        },
        {
          "address": "0x25685269f0e5bcb01717ad915d2295e0345c1581",
          "topics": [
            "0xc7f505b2f371ae2175ee4913f4499e1f2633a7b5936321eed1cdaeb6115181d2"
          ],
          "data": "0x0000000000000000000000000000000000000000000000000000000000000001",
          "blockHash": "0x48c2fe398eb4df28b6e60f0adc555f7ae5574c3ea138a8aa6a9a3a4fb9c6dfb6",
          "blockNumber": "0x1537642",
          "blockTimestamp": "0x67f9470b",
          "transactionHash": "0x713a5778e3f5e684445f49c4d5995f054ed553d63ea548ae005a582e6a720ab6",
          "transactionIndex": "0xdb",
          "logIndex": "0x1b4",
          "removed": false
        },
        {
          "address": "0x99f2b89fb3c363fbafd8d826e5aa77b28bab70a0",
          "topics": [
            "0xb919910dcefbf753bfd926ab3b1d3f85d877190c3d01ba1bd585047b99b99f0b",
            "0x00000000000000000000000025685269f0e5bcb01717ad915d2295e0345c1581"
          ],
          "data": "0x",
          "blockHash": "0x48c2fe398eb4df28b6e60f0adc555f7ae5574c3ea138a8aa6a9a3a4fb9c6dfb6",
          "blockNumber": "0x1537642",
          "blockTimestamp": "0x67f9470b",
          "transactionHash": "0x713a5778e3f5e684445f49c4d5995f054ed553d63ea548ae005a582e6a720ab6",
          "transactionIndex": "0xdb",
          "logIndex": "0x1b5",
          "removed": false
        }
      ],
      "logsBloom": "0x00000000000000000008000000000020200000000000000000800000000000000000000000200010000000000000000000000000010000000000000000000000000000000000000000000000000000000001000000000000000000000000000000000000020000040000000000000800000040000000000000000000000000404000000000000000000800000000000000000000000080000000000000000010000000000000000040000000000000000000000000000000000000000000000000000000000000000000000000000000000000000004000000000000000020000000000000008000000080000000440000000000000000000000000000000000",
      "type": "0x2",
      "transactionHash": "0x713a5778e3f5e684445f49c4d5995f054ed553d63ea548ae005a582e6a720ab6",
      "transactionIndex": "0xdb",
      "blockHash": "0x48c2fe398eb4df28b6e60f0adc555f7ae5574c3ea138a8aa6a9a3a4fb9c6dfb6",
      "blockNumber": "0x1537642",
      "gasUsed": "0x34b9d",
      "effectiveGasPrice": "0x8d7f1807",
      "from": "0xa7eccdb9be08178f896c26b7bbd8c3d4e844d9ba",
      "to": "0x99f2b89fb3c363fbafd8d826e5aa77b28bab70a0",
      "contractAddress": null
    }
  ],
  "libraries": [],
  "pending": [],
  "returns": {},
  "timestamp": 1744389902,
  "chain": 1,
  "commit": "aa5ffed"
}